{
  "contractName": "DNSContract",
  "abi": [
    {
      "inputs": [
        {
          "internalType": "uint256",
          "name": "fee",
          "type": "uint256"
        }
      ],
      "stateMutability": "nonpayable",
      "type": "constructor"
    },
    {
      "anonymous": false,
      "inputs": [
        {
          "indexed": false,
          "internalType": "string",
          "name": "domain",
          "type": "string"
        }
      ],
      "name": "DomainDeleted",
      "type": "event"
    },
    {
      "anonymous": false,
      "inputs": [
        {
          "indexed": false,
          "internalType": "string",
          "name": "domain",
          "type": "string"
        },
        {
          "indexed": true,
          "internalType": "address",
          "name": "owner",
          "type": "address"
        }
      ],
      "name": "DomainRegistered",
      "type": "event"
    },
    {
      "anonymous": false,
      "inputs": [
        {
          "indexed": false,
          "internalType": "string",
          "name": "domain",
          "type": "string"
        },
        {
          "indexed": true,
          "internalType": "address",
          "name": "newOwner",
          "type": "address"
        }
      ],
      "name": "DomainTransferred",
      "type": "event"
    },
    {
      "anonymous": false,
      "inputs": [
        {
          "indexed": false,
          "internalType": "string",
          "name": "domain",
          "type": "string"
        },
        {
          "indexed": false,
          "internalType": "string",
          "name": "newIP",
          "type": "string"
        }
      ],
      "name": "DomainUpdated",
      "type": "event"
    },
    {
      "inputs": [
        {
          "internalType": "string",
          "name": "domain",
          "type": "string"
        }
      ],
      "name": "getDomainInfo",
      "outputs": [
        {
          "internalType": "bool",
          "name": "",
          "type": "bool"
        },
        {
          "internalType": "address",
          "name": "",
          "type": "address"
        },
        {
          "internalType": "string",
          "name": "",
          "type": "string"
        },
        {
          "internalType": "uint256",
          "name": "",
          "type": "uint256"
        }
      ],
      "stateMutability": "view",
      "type": "function",
      "constant": true
    },
    {
      "inputs": [
        {
          "internalType": "string",
          "name": "domain",
          "type": "string"
        },
        {
          "internalType": "string",
          "name": "ip",
          "type": "string"
        }
      ],
      "name": "buyDomain",
      "outputs": [],
      "stateMutability": "payable",
      "type": "function",
      "payable": true
    },
    {
      "inputs": [
        {
          "internalType": "string",
          "name": "domain",
          "type": "string"
        },
        {
          "internalType": "string",
          "name": "newIP",
          "type": "string"
        }
      ],
      "name": "updateDomain",
      "outputs": [],
      "stateMutability": "nonpayable",
      "type": "function"
    },
    {
      "inputs": [
        {
          "internalType": "string",
          "name": "domain",
          "type": "string"
        },
        {
          "internalType": "address",
          "name": "newOwner",
          "type": "address"
        }
      ],
      "name": "transferDomain",
      "outputs": [],
      "stateMutability": "nonpayable",
      "type": "function"
    },
    {
      "inputs": [
        {
          "internalType": "string",
          "name": "domain",
          "type": "string"
        }
      ],
      "name": "deleteDomain",
      "outputs": [],
      "stateMutability": "nonpayable",
      "type": "function"
    },
    {
      "inputs": [],
      "name": "getAllDomains",
      "outputs": [
        {
          "internalType": "string[]",
          "name": "",
          "type": "string[]"
        }
      ],
      "stateMutability": "view",
      "type": "function",
      "constant": true
    },
    {
      "inputs": [],
      "name": "getRegistrationFee",
      "outputs": [
        {
          "internalType": "uint256",
          "name": "",
          "type": "uint256"
        }
      ],
      "stateMutability": "view",
      "type": "function",
      "constant": true
    }
  ],
  "bytecode": "0x60806040523480156200001157600080fd5b5060405162001a2e38038062001a2e833981810160405281019062000037919062000085565b8060028190555050620000b7565b600080fd5b6000819050919050565b6200005f816200004a565b81146200006b57600080fd5b50565b6000815190506200007f8162000054565b92915050565b6000602082840312156200009e576200009d62000045565b5b6000620000ae848285016200006e565b91505092915050565b61196780620000c76000396000f3fe6080604052600436106100705760003560e01c80634889e1921161004e5780634889e192146100f25780635a018e6a14610132578063650643701461015d5780639774622f1461017957610070565b80630946e807146100755780630eaf9752146100a057806319fbe87e146100c9575b600080fd5b34801561008157600080fd5b5061008a6101a2565b6040516100979190610edd565b60405180910390f35b3480156100ac57600080fd5b506100c760048036038101906100c29190610f67565b6101ac565b005b3480156100d557600080fd5b506100f060048036038101906100eb9190611012565b61044c565b005b3480156100fe57600080fd5b5061011960048036038101906101149190610f67565b610667565b6040516101299493929190611135565b60405180910390f35b34801561013e57600080fd5b506101476107e4565b604051610154919061128d565b60405180910390f35b610177600480360381019061017291906112af565b6108bd565b005b34801561018557600080fd5b506101a0600480360381019061019b91906112af565b610b63565b005b6000600254905090565b81818080601f016020809104026020016040519081016040528093929190818152602001838380828437600081840152601f19601f820116905080830192505050505050503373ffffffffffffffffffffffffffffffffffffffff16600082604051610218919061136c565b908152602001604051809103902060000160009054906101000a900473ffffffffffffffffffffffffffffffffffffffff1673ffffffffffffffffffffffffffffffffffffffff16146102a0576040517f08c379a0000000000000000000000000000000000000000000000000000000008152600401610297906113f5565b60405180910390fd5b600083836040516102b2929190611449565b9081526020016040518091039020600080820160006101000a81549073ffffffffffffffffffffffffffffffffffffffff02191690556001820160006102f89190610cce565b6002820160009055505060005b60018054905081101561040d578383604051610322929190611492565b60405180910390206001828154811061033e5761033d6114ab565b5b9060005260206000200160405161035591906115ce565b6040518091039020036103fa5760018080805490506103749190611614565b81548110610385576103846114ab565b5b90600052602060002001600182815481106103a3576103a26114ab565b5b906000526020600020019080546103b990611509565b6103c4929190610d0e565b5060018054806103d7576103d6611648565b5b6001900381819060005260206000200160006103f39190610cce565b905561040d565b808061040590611677565b915050610305565b507f9b449e8e6e58cfe4813dc8a38f233368018ddd99ddc223e2f1a55eb22eefa236838360405161043f9291906116ec565b60405180910390a1505050565b82828080601f016020809104026020016040519081016040528093929190818152602001838380828437600081840152601f19601f820116905080830192505050505050503373ffffffffffffffffffffffffffffffffffffffff166000826040516104b8919061136c565b908152602001604051809103902060000160009054906101000a900473ffffffffffffffffffffffffffffffffffffffff1673ffffffffffffffffffffffffffffffffffffffff1614610540576040517f08c379a0000000000000000000000000000000000000000000000000000000008152600401610537906113f5565b60405180910390fd5b600073ffffffffffffffffffffffffffffffffffffffff168273ffffffffffffffffffffffffffffffffffffffff16036105af576040517f08c379a00000000000000000000000000000000000000000000000000000000081526004016105a690611782565b60405180910390fd5b81600085856040516105c2929190611449565b908152602001604051809103902060000160006101000a81548173ffffffffffffffffffffffffffffffffffffffff021916908373ffffffffffffffffffffffffffffffffffffffff1602179055508173ffffffffffffffffffffffffffffffffffffffff167fdd63f6902a6b6bded38ce8f7f7f8b9d9c5916bfa7cc3932470465086884efb3c85856040516106599291906116ec565b60405180910390a250505050565b600080606060008060008787604051610681929190611449565b90815260200160405180910390206040518060600160405290816000820160009054906101000a900473ffffffffffffffffffffffffffffffffffffffff1673ffffffffffffffffffffffffffffffffffffffff1673ffffffffffffffffffffffffffffffffffffffff16815260200160018201805461070090611509565b80601f016020809104026020016040519081016040528092919081815260200182805461072c90611509565b80156107795780601f1061074e57610100808354040283529160200191610779565b820191906000526020600020905b81548152906001019060200180831161075c57829003601f168201915b505050505081526020016002820154815250509050600073ffffffffffffffffffffffffffffffffffffffff16816000015173ffffffffffffffffffffffffffffffffffffffff16141581600001518260200151836040015194509450945094505092959194509250565b60606001805480602002602001604051908101604052809291908181526020016000905b828210156108b457838290600052602060002001805461082790611509565b80601f016020809104026020016040519081016040528092919081815260200182805461085390611509565b80156108a05780601f10610875576101008083540402835291602001916108a0565b820191906000526020600020905b81548152906001019060200180831161088357829003601f168201915b505050505081526020019060010190610808565b50505050905090565b600254341015610902576040517f08c379a00000000000000000000000000000000000000000000000000000000081526004016108f990611814565b60405180910390fd5b600073ffffffffffffffffffffffffffffffffffffffff166000858560405161092c929190611449565b908152602001604051809103902060000160009054906101000a900473ffffffffffffffffffffffffffffffffffffffff1673ffffffffffffffffffffffffffffffffffffffff16146109b4576040517f08c379a00000000000000000000000000000000000000000000000000000000081526004016109ab90611880565b60405180910390fd5b60006301e13380426109c691906118a0565b905060405180606001604052803373ffffffffffffffffffffffffffffffffffffffff16815260200184848080601f016020809104026020016040519081016040528093929190818152602001838380828437600081840152601f19601f8201169050808301925050505050505081526020018281525060008686604051610a4f929190611449565b908152602001604051809103902060008201518160000160006101000a81548173ffffffffffffffffffffffffffffffffffffffff021916908373ffffffffffffffffffffffffffffffffffffffff1602179055506020820151816001019080519060200190610ac0929190610d9b565b50604082015181600201559050506001858590918060018154018082558091505060019003906000526020600020016000909192909192909192909192509190610b0b929190610e21565b503373ffffffffffffffffffffffffffffffffffffffff167f70f2ff07e8136617cdfb0433423063c9dd697c507560d7860cce09fa86874a128686604051610b549291906116ec565b60405180910390a25050505050565b83838080601f016020809104026020016040519081016040528093929190818152602001838380828437600081840152601f19601f820116905080830192505050505050503373ffffffffffffffffffffffffffffffffffffffff16600082604051610bcf919061136c565b908152602001604051809103902060000160009054906101000a900473ffffffffffffffffffffffffffffffffffffffff1673ffffffffffffffffffffffffffffffffffffffff1614610c57576040517f08c379a0000000000000000000000000000000000000000000000000000000008152600401610c4e906113f5565b60405180910390fd5b828260008787604051610c6b929190611449565b90815260200160405180910390206001019190610c89929190610e21565b507f0e540ff014403c501655ba5fcd7f36ec5f6df99f851e513e7d6c4c93da11217485858585604051610cbf94939291906118f6565b60405180910390a15050505050565b508054610cda90611509565b6000825580601f10610cec5750610d0b565b601f016020900490600052602060002090810190610d0a9190610ea7565b5b50565b828054610d1a90611509565b90600052602060002090601f016020900481019282610d3c5760008555610d8a565b82601f10610d4d5780548555610d8a565b82800160010185558215610d8a57600052602060002091601f016020900482015b82811115610d89578254825591600101919060010190610d6e565b5b509050610d979190610ea7565b5090565b828054610da790611509565b90600052602060002090601f016020900481019282610dc95760008555610e10565b82601f10610de257805160ff1916838001178555610e10565b82800160010185558215610e10579182015b82811115610e0f578251825591602001919060010190610df4565b5b509050610e1d9190610ea7565b5090565b828054610e2d90611509565b90600052602060002090601f016020900481019282610e4f5760008555610e96565b82601f10610e6857803560ff1916838001178555610e96565b82800160010185558215610e96579182015b82811115610e95578235825591602001919060010190610e7a565b5b509050610ea39190610ea7565b5090565b5b80821115610ec0576000816000905550600101610ea8565b5090565b6000819050919050565b610ed781610ec4565b82525050565b6000602082019050610ef26000830184610ece565b92915050565b600080fd5b600080fd5b600080fd5b600080fd5b600080fd5b60008083601f840112610f2757610f26610f02565b5b8235905067ffffffffffffffff811115610f4457610f43610f07565b5b602083019150836001820283011115610f6057610f5f610f0c565b5b9250929050565b60008060208385031215610f7e57610f7d610ef8565b5b600083013567ffffffffffffffff811115610f9c57610f9b610efd565b5b610fa885828601610f11565b92509250509250929050565b600073ffffffffffffffffffffffffffffffffffffffff82169050919050565b6000610fdf82610fb4565b9050919050565b610fef81610fd4565b8114610ffa57600080fd5b50565b60008135905061100c81610fe6565b92915050565b60008060006040848603121561102b5761102a610ef8565b5b600084013567ffffffffffffffff81111561104957611048610efd565b5b61105586828701610f11565b9350935050602061106886828701610ffd565b9150509250925092565b60008115159050919050565b61108781611072565b82525050565b61109681610fd4565b82525050565b600081519050919050565b600082825260208201905092915050565b60005b838110156110d65780820151818401526020810190506110bb565b838111156110e5576000848401525b50505050565b6000601f19601f8301169050919050565b60006111078261109c565b61111181856110a7565b93506111218185602086016110b8565b61112a816110eb565b840191505092915050565b600060808201905061114a600083018761107e565b611157602083018661108d565b818103604083015261116981856110fc565b90506111786060830184610ece565b95945050505050565b600081519050919050565b600082825260208201905092915050565b6000819050602082019050919050565b600082825260208201905092915050565b60006111c98261109c565b6111d381856111ad565b93506111e38185602086016110b8565b6111ec816110eb565b840191505092915050565b600061120383836111be565b905092915050565b6000602082019050919050565b600061122382611181565b61122d818561118c565b93508360208202850161123f8561119d565b8060005b8581101561127b578484038952815161125c85826111f7565b94506112678361120b565b925060208a01995050600181019050611243565b50829750879550505050505092915050565b600060208201905081810360008301526112a78184611218565b905092915050565b600080600080604085870312156112c9576112c8610ef8565b5b600085013567ffffffffffffffff8111156112e7576112e6610efd565b5b6112f387828801610f11565b9450945050602085013567ffffffffffffffff81111561131657611315610efd565b5b61132287828801610f11565b925092505092959194509250565b600081905092915050565b60006113468261109c565b6113508185611330565b93506113608185602086016110b8565b80840191505092915050565b6000611378828461133b565b915081905092915050565b7f596f7520617265206e6f7420746865206f776e6572206f66207468697320646f60008201527f6d61696e206e616d650000000000000000000000000000000000000000000000602082015250565b60006113df6029836110a7565b91506113ea82611383565b604082019050919050565b6000602082019050818103600083015261140e816113d2565b9050919050565b82818337600083830152505050565b60006114308385611330565b935061143d838584611415565b82840190509392505050565b6000611456828486611424565b91508190509392505050565b600081905092915050565b60006114798385611462565b9350611486838584611415565b82840190509392505050565b600061149f82848661146d565b91508190509392505050565b7f4e487b7100000000000000000000000000000000000000000000000000000000600052603260045260246000fd5b7f4e487b7100000000000000000000000000000000000000000000000000000000600052602260045260246000fd5b6000600282049050600182168061152157607f821691505b602082108103611534576115336114da565b5b50919050565b60008190508160005260206000209050919050565b6000815461155c81611509565b6115668186611462565b945060018216600081146115815760018114611592576115c5565b60ff198316865281860193506115c5565b61159b8561153a565b60005b838110156115bd5781548189015260018201915060208101905061159e565b838801955050505b50505092915050565b60006115da828461154f565b915081905092915050565b7f4e487b7100000000000000000000000000000000000000000000000000000000600052601160045260246000fd5b600061161f82610ec4565b915061162a83610ec4565b92508282101561163d5761163c6115e5565b5b828203905092915050565b7f4e487b7100000000000000000000000000000000000000000000000000000000600052603160045260246000fd5b600061168282610ec4565b91507fffffffffffffffffffffffffffffffffffffffffffffffffffffffffffffffff82036116b4576116b36115e5565b5b600182019050919050565b60006116cb83856110a7565b93506116d8838584611415565b6116e1836110eb565b840190509392505050565b600060208201905081810360008301526117078184866116bf565b90509392505050565b7f496e76616c6964206164647265737320666f7220646f6d61696e207472616e7360008201527f6665720000000000000000000000000000000000000000000000000000000000602082015250565b600061176c6023836110a7565b915061177782611710565b604082019050919050565b6000602082019050818103600083015261179b8161175f565b9050919050565b7f496e73756666696369656e74207061796d656e7420666f7220646f6d61696e2060008201527f726567697374726174696f6e0000000000000000000000000000000000000000602082015250565b60006117fe602c836110a7565b9150611809826117a2565b604082019050919050565b6000602082019050818103600083015261182d816117f1565b9050919050565b7f5468697320646f6d61696e20616c726561647920657869737473000000000000600082015250565b600061186a601a836110a7565b915061187582611834565b602082019050919050565b600060208201905081810360008301526118998161185d565b9050919050565b60006118ab82610ec4565b91506118b683610ec4565b9250827fffffffffffffffffffffffffffffffffffffffffffffffffffffffffffffffff038211156118eb576118ea6115e5565b5b828201905092915050565b600060408201905081810360008301526119118186886116bf565b905081810360208301526119268184866116bf565b90509594505050505056fea26469706673582212208a11cfb205b7d4c4eb086de2e5dc01972f54fb01630569c4825b77d402787eee64736f6c634300080d0033",
  "immutableReferences": {},
  "source": "// SPDX-License-Identifier: MIT\npragma solidity ^0.8.13;\n\ncontract DNSContract {\n    struct Domain {\n        address owner;\n        string ip;\n        uint256 expirationDate;\n    }\n\n    mapping(string => Domain) private domains;\n    string[] private domainList;\n    uint256 private registrationFee;\n\n    event DomainRegistered(string domain, address indexed owner);\n    event DomainUpdated(string domain, string newIP);\n    event DomainTransferred(string domain, address indexed newOwner);\n    event DomainDeleted(string domain);\n\n    constructor(uint256 fee) {\n        registrationFee = fee;\n    }\n\n    modifier onlyDomainOwner(string memory domain) {\n        require(\n            domains[domain].owner == msg.sender,\n            \"You are not the owner of this domain name\"\n        );\n        _;\n    }\n\n    function getDomainInfo(string calldata domain) external view returns (bool, address, string memory, uint256) {\n        Domain memory d = domains[domain];\n        return (d.owner != address(0), d.owner, d.ip, d.expirationDate);\n    }\n\n    function buyDomain(string calldata domain, string calldata ip) external payable {\n        require(msg.value >= registrationFee, \"Insufficient payment for domain registration\");\n        require(domains[domain].owner == address(0), \"This domain already exists\");\n\n        uint256 expirationDate = block.timestamp + 365 days;\n\n        domains[domain] = Domain({\n            owner: msg.sender,\n            ip: ip,\n            expirationDate: expirationDate\n        });\n\n        domainList.push(domain);\n\n        emit DomainRegistered(domain, msg.sender);\n    }\n\n    function updateDomain(string calldata domain, string calldata newIP) external onlyDomainOwner(domain) {\n        domains[domain].ip = newIP;\n        emit DomainUpdated(domain, newIP);\n    }\n\n    function transferDomain(string calldata domain, address newOwner) external onlyDomainOwner(domain) {\n        require(newOwner != address(0), \"Invalid address for domain transfer\");\n        domains[domain].owner = newOwner;\n        emit DomainTransferred(domain, newOwner);\n    }\n\n    function deleteDomain(string calldata domain) external onlyDomainOwner(domain) {\n        delete domains[domain];\n\n        for (uint256 i = 0; i < domainList.length; i++) {\n            if (keccak256(bytes(domainList[i])) == keccak256(bytes(domain))) {\n                domainList[i] = domainList[domainList.length - 1];\n                domainList.pop();\n                break;\n            }\n        }\n\n        emit DomainDeleted(domain);\n    }\n\n    function getAllDomains() external view returns (string[] memory) {\n        return domainList;\n    }\n\n    function getRegistrationFee() external view returns (uint256) {\n        return registrationFee;\n    }\n}\n",
  "sourcePath": "C:\\Users\\kenpachi\\Documents\\DDNS\\contracts\\DNSConstract.sol",
  "compiler": {
    "name": "solc",
    "version": "0.8.13+commit.abaa5c0e.Emscripten.clang"
  },
  "schemaVersion": "3.4.16",
  "updatedAt": "2024-05-20T07:09:24.380Z",
  "networkType": "ethereum",
  "devdoc": {
    "kind": "dev",
    "methods": {},
    "version": 1
  },
  "userdoc": {
    "kind": "user",
    "methods": {},
    "version": 1
  }
}