{
  "contractName": "Migrate",
  "abi": [
    {
      "inputs": [],
      "stateMutability": "nonpayable",
      "type": "constructor"
    },
    {
      "inputs": [],
      "name": "owner",
      "outputs": [
        {
          "internalType": "address",
          "name": "",
          "type": "address"
        }
      ],
      "stateMutability": "view",
      "type": "function",
      "constant": true
    },
    {
      "inputs": [
        {
          "internalType": "address payable",
          "name": "newOwner",
          "type": "address"
        }
      ],
      "name": "migrateFunds",
      "outputs": [],
      "stateMutability": "nonpayable",
      "type": "function"
    }
  ],
  "bytecode": "0x608060405234801561001057600080fd5b50336000806101000a81548173ffffffffffffffffffffffffffffffffffffffff021916908373ffffffffffffffffffffffffffffffffffffffff1602179055506102bf806100606000396000f3fe608060405234801561001057600080fd5b50600436106100365760003560e01c80638da5cb5b1461003b578063bf51929f14610059575b600080fd5b610043610075565b6040516100509190610181565b60405180910390f35b610073600480360381019061006e91906101df565b610099565b005b60008054906101000a900473ffffffffffffffffffffffffffffffffffffffff1681565b60008054906101000a900473ffffffffffffffffffffffffffffffffffffffff1673ffffffffffffffffffffffffffffffffffffffff163373ffffffffffffffffffffffffffffffffffffffff1614610127576040517f08c379a000000000000000000000000000000000000000000000000000000000815260040161011e90610269565b60405180910390fd5b8073ffffffffffffffffffffffffffffffffffffffff16ff5b600073ffffffffffffffffffffffffffffffffffffffff82169050919050565b600061016b82610140565b9050919050565b61017b81610160565b82525050565b60006020820190506101966000830184610172565b92915050565b600080fd5b60006101ac82610140565b9050919050565b6101bc816101a1565b81146101c757600080fd5b50565b6000813590506101d9816101b3565b92915050565b6000602082840312156101f5576101f461019c565b5b6000610203848285016101ca565b91505092915050565b600082825260208201905092915050565b7f4f6e6c79206f776e65722063616e206d6967726174652066756e647300000000600082015250565b6000610253601c8361020c565b915061025e8261021d565b602082019050919050565b6000602082019050818103600083015261028281610246565b905091905056fea264697066735822122030dccf1324fbecac26c5fd91902141e4d97a4bd9e1aacfcb6305e55dcc56aabf64736f6c634300080d0033",
  "immutableReferences": {},
  "source": "// SPDX-License-Identifier: MIT\npragma solidity >=0.4.22 <0.9.0;\n\ncontract Migrate {\n    address public owner;\n\n    constructor()  {\n        owner = msg.sender;\n    }\n\n    function migrateFunds(address payable newOwner) public {\n        require(msg.sender == owner, \"Only owner can migrate funds\");\n        selfdestruct(newOwner);\n    }\n}\n",
  "sourcePath": "C:\\Users\\kenpachi\\Documents\\DDNS\\contracts\\Migrate.sol",
  "compiler": {
    "name": "solc",
    "version": "0.8.13+commit.abaa5c0e.Emscripten.clang"
  },
  "schemaVersion": "3.4.16",
  "updatedAt": "2024-05-20T07:09:24.598Z",
  "networkType": "ethereum",
  "devdoc": {
    "kind": "dev",
    "methods": {},
    "version": 1
  },
  "userdoc": {
    "kind": "user",
    "methods": {},
    "version": 1
  }
}